:100000000C9462000C948A000C948A000C948A0070
:100010000C948A000C948A000C948A000C948A0038
:100020000C948A000C948A000C948A000C948A0028
:100030000C948A000C948A000C948A000C948A0018
:100040000C94C0020C948A000C948E020C946802EA
:100050000C948A000C948A000C948A000C948A00F8
:100060000C948A000C948A000000000025002800EF
:100070002B0000000000240027002A0000000000E0
:1000800023002600290004040404040404040202DA
:100090000202020203030303030301020408102007
:1000A0004080010204081020010204081020000012
:1000B0000008000201000003040700000000000027
:1000C0000000220511241FBECFEFD8E0DEBFCDBF58
:1000D00021E0A2E4B1E001C01D92AC3EB207E1F71D
:1000E00011E0A0E0B1E0EAE6FFE002C005900D9269
:1000F000A234B107D9F710E0C2E6D0E004C02197DE
:10010000FE010E94BB05C136D107C9F70E940A0350
:100110000C94B3070C940000AF92BF92CF92DF9281
:10012000EF92FF920F931F93CF93DF936C017B01AC
:100130008B01040F151FEB015E01AE18BF08C0173D
:10014000D10759F06991D601ED91FC910190F081B0
:10015000E02DC6010995892B79F7C501DF91CF9173
:100160001F910F91FF90EF90DF90CF90BF90AF90D5
:100170000895FC01538D448D252F30E0842F90E0AD
:10018000821B930B541710F0CF9608950197089592
:10019000FC01918D828D981761F0A28DAE0FBF2F5B
:1001A000B11D5D968C91928D9F5F9F73928F90E0B1
:1001B00008958FEF9FEF0895FC01918D828D981720
:1001C00031F0828DE80FF11D858D90E008958FEF5D
:1001D0009FEF0895FC01918D228D892F90E0805C26
:1001E0009F4F821B91098F73992708958BE491E0AB
:1001F0000E94EA0021E0892B09F420E0822F089573
:1002000080E090E0892B29F00E94F60081110C9487
:1002100000000895FC01A48DA80FB92FB11DA35AA9
:10022000BF4F2C91848D90E001968F739927848F16
:10023000A689B7892C93A089B1898C918370806439
:100240008C93938D848D981306C00288F389E02DDA
:1002500080818F7D80830895EF92FF920F931F938B
:10026000CF93DF93EC0181E0888F9B8D8C8D981369
:100270001AC0E889F989808185FF15C09FB7F89475
:10028000EE89FF896083E889F989808183708064C1
:1002900080839FBF81E090E0DF91CF911F910F910C
:1002A000FF90EF900895F62E0B8D10E00F5F1F4F1B
:1002B0000F731127E02E8C8D8E110CC00FB607FC2A
:1002C000FACFE889F989808185FFF5CFCE010E94B8
:1002D0000A01F1CFEB8DEC0FFD2FF11DE35AFF4F1B
:1002E000F0829FB7F8940B8FEA89FB898081806246
:1002F000CFCFCF93DF93EC01888D8823B9F0AA8903
:10030000BB89E889F9898C9185FD03C0808186FDD0
:100310000DC00FB607FCF7CF8C9185FFF2CF80811F
:1003200085FFEDCFCE010E940A01E9CFDF91CF9189
:100330000895833081F028F4813099F08230A9F05B
:1003400008958730A9F08830C9F08430B1F48091E5
:1003500080008F7D03C0809180008F778093800024
:10036000089584B58F7784BD089584B58F7DFBCFC4
:100370008091B0008F778093B00008958091B00095
:100380008F7DF9CF1F93CF93DF93282F30E0F901B2
:10039000E255FF4F8491F901E656FF4FD491F901E0
:1003A000EA57FF4FC491CC23A9F0162F81110E9468
:1003B0009901EC2FF0E0EE0FFF1FE859FF4FA591D8
:1003C000B4918FB7F894EC91111108C0D095DE2349
:1003D000DC938FBFDF91CF911F910895DE2BF8CF73
:1003E0003FB7F8948091470190914801A09149014D
:1003F000B0914A0126B5A89B05C02F3F19F0019680
:10040000A11DB11D3FBFBA2FA92F982F8827BC016E
:10041000CD01620F711D811D911D42E0660F771F96
:10042000881F991F4A95D1F708950F931F93CF9373
:10043000DF93EC0188819981009759F02A813B81F3
:100440002617370730F081E0DF91CF911F910F9190
:1004500008958B016F5F7F4F0E94E606009759F069
:10046000998388831B830A832C813D81232B59F731
:10047000FC011082E8CF80E0E7CFEF92FF920F936C
:100480001F93CF93DF93EC017B018A01BA010E9495
:10049000150228813981811114C02115310519F007
:1004A000C9010E945D06198218821D821C821B826E
:1004B0001A82CE01DF91CF911F910F91FF90EF90A3
:1004C00008951D830C83B701C9010E94AC07F1CFC9
:1004D0001F920F920FB60F9211242F933F934F93B9
:1004E0005F936F937F938F939F93AF93BF93EF939C
:1004F000FF938BE491E00E940A01FF91EF91BF917D
:10050000AF919F918F917F916F915F914F913F91AB
:100510002F910F900FBE0F901F9018951F920F9262
:100520000FB60F9211242F938F939F93EF93FF9306
:10053000E0915B01F0915C018081E0916101F091BB
:10054000620182FD1BC09081809164018F5F8F7377
:1005500020916501821741F0E0916401F0E0E55BD4
:10056000FE4F958F80936401FF91EF919F918F9142
:100570002F910F900FBE0F901F9018958081F4CF90
:100580001F920F920FB60F9211242F933F938F93C8
:100590009F93AF93BF938091430190914401A091A9
:1005A0004501B09146013091420123E0230F2D37E0
:1005B00058F50196A11DB11D20934201809343017E
:1005C00090934401A0934501B09346018091470167
:1005D00090914801A0914901B0914A010196A11D55
:1005E000B11D8093470190934801A0934901B093B6
:1005F0004A01BF91AF919F918F913F912F910F90A1
:100600000FBE0F901F90189526E8230F0296A11D8C
:10061000B11DD2CFCF93DF93CDB7DEB768970FB6BA
:10062000F894DEBF0FBECDBF789484B5826084BDE0
:1006300084B5816084BD85B5826085BD85B58160E6
:1006400085BD80916E00816080936E001092810064
:10065000809181008260809381008091810081601F
:1006600080938100809180008160809380008091E0
:10067000B10084608093B1008091B000816080936C
:10068000B00080917A00846080937A0080917A0033
:10069000826080937A0080917A00816080937A00F2
:1006A00080917A00806880937A001092C100A4E261
:1006B000B1E04EE251E02AE131E08D919D91992720
:1006C000FC01E656FF4F64918A579F4FFC018491CD
:1006D0008823A1F090E0880F991FFC01EE58FF4F8E
:1006E00005911491FC01E859FF4F859194918FB7C2
:1006F000F894F8019081692B60838FBFF901819193
:1007000091919F019927FC01E656FF4F14918A575A
:100710009F4FFC0184918823C9F090E0880F991FB6
:10072000FC01EE58FF4F65917491FC01E859FF4FB1
:10073000E590F4909FB7F894FB0180811095812398
:100740008083F7018081812380839FBF4A175B07E5
:1007500009F0B3CFE0915B01F0915C0182E080830E
:10076000E0915701F09158011082E0915901F09108
:100770005A018FEC808310926301E0915F01F09148
:10078000600186E08083E0915D01F0915E018081EF
:1007900080618083E0915D01F0915E0180818860DD
:1007A0008083E0915D01F0915E01808180688083AB
:1007B000E0915D01F0915E0180818F7D8083AA24AC
:1007C000AA94BA2C8E010F5F1F4F40E0842E40E0A8
:1007D000942EB0920101A09200012AE1C22E21E0E4
:1007E000D22EF12CE12CF601219131916F013327AA
:1007F000F901E255FF4F8491F901E656FF4F7490DD
:10080000F901EA57FF4F6490611020C0F092010196
:10081000E0920001FFEFEF1AFF0A25E0E216F10473
:1008200011F7E0900001F090010182E0E816F10478
:1008300009F4DBC0D4F4E114F10409F4C6C0F1E01A
:10084000EF16F10409F4C7C060E0C0C081110E9436
:100850009901E62DF0E0EE0FFF1FE458FF4FA59140
:10086000B491EC917E2291F2D5CF23E0E216F1040F
:1008700009F4C9C084E0E816F10431F760E082E0D1
:100880000E94C20160E083E00E94C20160E084E057
:100890000E94C20160E085E00E94C20161E086E042
:1008A0000E94C2011C8A1B8A1E8A1D8A188E1F8AFA
:1008B0004AE0B801C70101960E944F05F801019076
:1008C0000020E9F73197AF01401B510BB801CE0171
:1008D00043960E943D021A8219821C821B821E824C
:1008E0001D824FE050E06EE271E0C8010E943D02BF
:1008F000CB88DC88C114D10409F497C0EF88F88C48
:10090000E114F104B1F08D819E81E80EF91EB7016A
:10091000C8010E941502882309F487C029813A8101
:100920008D819E81B601820F931F0E94AC07FE82CB
:10093000ED824D815E8169817A818BE491E00E9434
:100940008C0042E050E06EE371E08BE491E00E94A5
:100950008C0089819A81009711F00E945D068B8935
:100960009C89009711F00E945D060E94F0016B01C6
:100970007C0184E6482E512C612C712C0E94F001E0
:100980006C197D098E099F09683E734081059105A8
:10099000A8F3E1E04E1A510861087108F8EECF0E95
:1009A000F3E0DF1EE11CF11C4114510461047104E9
:1009B00029F78114910409F40CCF0E94F6008823D2
:1009C00009F407CF0E94000004CF61E082E00E949A
:1009D000C20160E005C060E082E00E94C20161E007
:1009E00083E00E94C20160E009C060E082E00E94F2
:1009F000C20160E083E00E94C20161E084E00E94E5
:100A0000C20160E00DC060E082E00E94C20160E0CF
:100A100083E00E94C20160E084E00E94C20161E0C4
:100A200085E00E94C20160E03ACF89819A810097F7
:100A300011F00E945D061A8219821E821D821C829C
:100A40001B8277CFEBE4F1E01382128288EE93E011
:100A5000A0E0B0E084839583A683B7838CE091E027
:100A60009183808385EC90E09587848784EC90E087
:100A70009787868780EC90E0918B808B81EC90E06B
:100A8000938B828B82EC90E0958B848B86EC90E04C
:100A9000978B868B118E128E138E148E0895BB2722
:100AA0004A3031F4992322F4BDE2909581959F4F0D
:100AB0000C945B05BB27FB015527AA27880F991FBC
:100AC000AA1FA41710F0A41B83955051B9F7A05D7D
:100AD000AA3308F0A95DA193009779F7B111B193FA
:100AE0001192CB010C947405DC01FC01672F71910C
:100AF0007723E1F7329704C07C916D937083629104
:100B0000AE17BF07C8F308952F923F924F925F929E
:100B10006F927F928F929F92AF92BF92CF92DF920D
:100B2000EF92FF920F931F93CF93DF93CDB7DEB772
:100B3000CA1BDB0B0FB6F894DEBF0FBECDBF099406
:100B40002A88398848885F846E847D848C849B845D
:100B5000AA84B984C884DF80EE80FD800C811B816B
:100B6000AA81B981CE0FD11D0FB6F894DEBF0FBE9A
:100B7000CDBFED010895EE0FFF1F0590F491E02D1C
:100B800009940F931F93CF93DF938230910510F454
:100B900082E090E0E091EA01F091EB0130E020E0AA
:100BA000B0E0A0E0309799F42115310509F44AC06E
:100BB000281B390B24303105D8F58A819B816115BA
:100BC000710589F1FB0193838283FE0111C040818D
:100BD00051810281138148175907E0F048175907DE
:100BE00099F4109761F012960C93129713961C9338
:100BF0003296CF01DF91CF911F910F91089500930D
:100C0000EA011093EB01F4CF2115310551F04217A1
:100C1000530738F0A901DB019A01BD01DF01F8019A
:100C2000C1CFEF01F9CF9093EB018093EA01CDCFD3
:100C3000FE01E20FF31F8193919322503109398312
:100C40002883D7CF2091E8013091E901232B41F48B
:100C500020910401309105013093E9012093E801CE
:100C600020910201309103012115310541F42DB786
:100C70003EB74091060150910701241B350BE091CE
:100C8000E801F091E901E217F307A0F42E1B3F0BF6
:100C90002817390778F0AC014E5F5F4F24173507EE
:100CA00048F04E0F5F1F5093E9014093E801819394
:100CB00091939FCFF0E0E0E09CCFCF93DF9300973C
:100CC000E9F0FC01329713821282A091EA01B091FF
:100CD000EB01ED0130E020E01097A1F4208131819B
:100CE000820F931F2091E8013091E90128173907FD
:100CF00009F061C0F093E901E093E801DF91CF9141
:100D00000895EA01CE17DF07E8F54A815B819E016D
:100D100041155105B1F7E901FB83EA8349915991E6
:100D2000C40FD51FEC17FD0761F4808191810296F5
:100D3000840F951FE90199838883828193819B8326
:100D40008A83F0E0E0E012968D919C9113970097D2
:100D5000B9F52D913C911197CD010296820F931F09
:100D60002091E8013091E9012817390739F63097C9
:100D700051F51092EB011092EA01B093E901A093B2
:100D8000E801BCCFD383C28340815181840F951F7A
:100D9000C817D90761F44E5F5F4F88819981480F6A
:100DA000591F518340838A819B81938382832115BC
:100DB000310509F0B0CFF093EB01E093EA019ECF4B
:100DC000FD01DC01C0CF13821282D7CFB0E0A0E0DA
:100DD000ECEEF6E00C9486058C01009751F4CB0103
:100DE0000E94C1058C01C801CDB7DEB7E0E10C94CB
:100DF000A205FC01E60FF71F9C0122503109E21702
:100E0000F30708F49DC0D901CD91DC911197C61765
:100E1000D70798F0C530D10530F3CE010497861777
:100E2000970708F3C61BD70B2297C193D1936D93F5
:100E30007C93CF010E945D06D6CF5B01AC1ABD0A40
:100E40004C018C0E9D1EA091EA01B091EB01512C3A
:100E5000412CF12CE12C109731F58091E801909113
:100E6000E9018815990509F05CC04616570608F097
:100E700058C08091020190910301009741F48DB711
:100E80009EB74091060150910701841B950BE8170E
:100E9000F90708F055C0F093E901E093E801F90182
:100EA00071836083A0CF8D919C91119712966C9065
:100EB000129713967C901397A815B90559F56C01F4
:100EC00042E0C40ED11CCA14DB0420F1AC014A1963
:100ED0005B09DA011296159780F062827382518362
:100EE0004083D9016D937C93E114F10471F0D70133
:100EF0001396FC93EE93129776CF22968C0F9D1F3C
:100F0000F90191838083F301EFCFF093EB01E0933C
:100F1000EA0169CF4816590608F42C017D01D30176
:100F20009ACFCB010E94C1057C01009749F0AE0128
:100F3000B8010E94A307C8010E945D06870153CF34
:100F400010E000E050CFFB01DC0102C001900D92E7
:100F500041505040D8F70895FB01DC0101900D92FB
:0A0F60000020E1F70895F894FFCF98
:100F6A00FFFF0000EC018000000000002C018C0053
:100F7A00B9007901EA00C800DC0009000A000B0088
:100F8A000C000D00020003000400050006006C6559
:100F9A006420656E63656E6469646F3A20000D0AA9
:020FAA00000045
:00000001FF
