:100000000C94F4000C941C010C941C010C941C0125
:100010000C941C010C941C010C941C010C941C01EC
:100020000C941C010C941C010C941C010C941C01DC
:100030000C941C010C941C010C941C010C941C01CC
:100040000C94AC030C941C010C941C040C94F6034B
:100050000C941C010C941C010C941C010C941C01AC
:100060000C941C010C941C0107634236B79BD8A763
:100070001A39685618AEBAAB558C1D3CB7CC5763CD
:10008000BD6DEDFD753EF6177231BF000000803F7B
:1000900008000000BE922449123EABAAAA2ABECD97
:1000A000CCCC4C3E00000080BEABAAAAAA3E000009
:1000B0000000BF000000803F000000000008417801
:1000C000D3BB4387D1133D190E3CC3BD4282AD2B38
:1000D0003E68EC8276BED98FE1A93E4C80EFFFBE30
:1000E00001C4FF7F3F000000000000407A10F35A77
:1000F00000A0724E18090010A5D4E80000E8764868
:10010000170000E40B54020000CA9A3B000000E113
:10011000F505000080969800000040420F000000A6
:10012000A08601000000102700000000E803000086
:1001300000006400000000000A0000000000010050
:10014000000000002C76D888DC674F0823DFC1DF71
:10015000AE59E1B1B796E5E3E453C63AE651997674
:1001600096E8E6C28426EB898C9B62ED407C6FFCAE
:10017000EFBC9C9F40F2BAA56FA5F490055A2AF7F0
:100180005C936B6CF9676DC11BFCE0E40D47FEF5F9
:1001900020E6B500D0ED902E030094357705008061
:1001A000841E080000204E0A000000C80C333333C0
:1001B000330F986E12831141EF8D2114893BE65560
:1001C00016CFFEE6DB18D1844B381BF77C1D901D43
:1001D000A4BBE424203284725E228100C9F124ECA5
:1001E000A1E53D274E04170611241FBECFEFD8E02E
:1001F000DEBFCDBF22E0A2E6B1E001C01D92A63174
:10020000B207E1F711E0A0E0B1E0E2EDFCE102C0ED
:1002100005900D92A236B107D9F710E0C3EFD0E0F8
:1002200004C02197FE010E94640CC23FD107C9F7A8
:100230000E9489040C945C0E0C9400000895AF9207
:10024000BF92CF92DF92EF92FF920F931F93CF93C3
:10025000DF936C017B018B01040F151FEB015E0125
:10026000AE18BF08C017D10759F06991D601ED91BA
:10027000FC910190F081E02DC6010995892B79F759
:10028000C501DF91CF911F910F91FF90EF90DF900B
:10029000CF90BF90AF900895FC01538D448D252FD2
:1002A00030E0842F90E0821B930B541710F0CF9610
:1002B000089501970895FC01918D828D981761F042
:1002C000A28DAE0FBF2FB11D5D968C91928D9F5F59
:1002D0009F73928F90E008958FEF9FEF08952FB74F
:1002E000F89480916B0190916C01A0916D01B09197
:1002F0006E012FBF8093770190937801A0937901CD
:10030000B0937A018FE691E00E945B0197FF26C0CF
:100310002FB7F89480916B0190916C01A0916D01C1
:10032000B0916E012FBF409177015091780160919B
:10033000790170917A01841B950BA60BB70B409144
:100340007301509174016091750170917601841769
:100350009507A607B707B0F28FEF9FEF0895FC014E
:10036000918D828D981731F0828DE80FF11D858D6A
:1003700090E008958FEF9FEF0895FC01918D228DFD
:10038000892F90E0805C9F4F821B91098F73992782
:1003900008958FE691E00E94BD0121E0892B09F4C8
:1003A00020E0822F089580E090E0892B29F00E94C0
:1003B000C90181110C9400000895FC01A48DA80FBF
:1003C000B92FB11DA35ABF4F2C91848D90E0019697
:1003D0008F739927848FA689B7892C93A089B189B7
:1003E0008C91837080648C93938D848D981306C058
:1003F0000288F389E02D80818F7D80830895EF92BC
:10040000FF920F931F93CF93DF93EC0181E0888FCE
:100410009B8D8C8D98131AC0E889F989808185FF9E
:1004200015C09FB7F894EE89FF896083E889F98940
:1004300080818370806480839FBF81E090E0DF9142
:10044000CF911F910F91FF90EF900895F62E0B8D95
:1004500010E00F5F1F4F0F731127E02E8C8D8E1150
:100460000CC00FB607FCFACFE889F989808185FFB7
:10047000F5CFCE010E94DD01F1CFEB8DEC0FFD2F0A
:10048000F11DE35AFF4FF0829FB7F8940B8FEA8972
:10049000FB8980818062CFCFCF93DF93EC01888D81
:1004A0008823B9F0AA89BB89E889F9898C9185FDEF
:1004B00003C0808186FD0DC00FB607FCF7CF8C917D
:1004C00085FFF2CF808185FFEDCFCE010E94DD0157
:1004D000E9CFDF91CF910895FC0101900020E9F769
:1004E0003197AF01481B590BBC018FE691E00C948A
:1004F0001F018F929F92AF92BF920F931F93CF9342
:10050000DF93CDB7DEB7A1970FB6F894DEBF0FBE6D
:10051000CDBF19A2423008F44AE08E010F5D1F4F93
:10052000842E912CB12CA12CA50194010E94420C87
:10053000E62FB901CA01EA30F4F4E05DD801EE9388
:100540008D01232B242B252B79F790E080E0109749
:1005500019F0CD010E946C02A1960FB6F894DEBF8F
:100560000FBECDBFDF91CF911F910F91BF90AF9084
:100570009F908F900895E95CE1CFCF92DF92EF9248
:10058000FF92CF93DF936B017C016DE28FE691E0E8
:100590000E94FF01EC0166277727CB016C197D09CA
:1005A0008E099F094AE00E9479028C0F9D1FDF91FE
:1005B000CF91FF90EF90DF90CF900895CF93DF938E
:1005C0000E946C02EC0188E191E00E946C028C0FA9
:1005D0009D1FDF91CF910895CF93DF93BC01990FB9
:1005E000880B990B97FF0CC00E94BD02EC0188E1BB
:1005F00091E00E946C028C0F9D1FDF91CF910895B6
:100600004AE00E947902F2CFBC01990F880B990B46
:1006100097FD0C94BD024AE00C947902FC018081A4
:100620009181009711F00C94060D08950F931F937C
:10063000CF93DF93EC0188819981009759F02A814B
:100640003B812617370730F081E0DF91CF911F9172
:100650000F9108958B016F5F7F4F0E948F0D009760
:1006600059F0998388831B830A832C813D81232B36
:1006700059F7FC011082E8CF80E0E7CFEF92FF92BC
:100680000F931F93CF93DF93EC017B018A01BA0193
:100690000E94160328813981811114C0211531056A
:1006A00019F0C9010E94060D198218821D821C8250
:1006B0001B821A82CE01DF91CF911F910F91FF9083
:1006C000EF9008951D830C83B701C9010E94550E58
:1006D000F1CFEF92FF920F931F93CF93DF9300D050
:1006E000CDB7DEB78C01FC01118210821382128219
:1006F0001582148250E040E06AE171E00E943E03FE
:100700000E946F0197FD1EC089831A82F801E48060
:10071000F580FFEFEF1AFF0AB701C8010E94160328
:10072000882371F3F8012081318184819581BE0194
:100730006F5F7F4F820F931F0E94550EF801F58265
:10074000E482DECFC8010F900F90DF91CF911F910F
:100750000F91FF90EF9008951F920F920FB60F9296
:1007600011242F933F938F939F93AF93BF938091C7
:100770006B0190916C01A0916D01B0916E0130916F
:100780006A0123E0230F2D3758F50196A11DB11DF5
:1007900020936A0180936B0190936C01A0936D018B
:1007A000B0936E018091660190916701A0916801FC
:1007B000B09169010196A11DB11D809366019093CE
:1007C0006701A0936801B0936901BF91AF919F91B8
:1007D0008F913F912F910F900FBE0F901F90189502
:1007E00026E8230F0296A11DB11DD2CF1F920F92B2
:1007F0000FB60F9211242F933F934F935F936F93F4
:100800007F938F939F93AF93BF93EF93FF938FE665
:1008100091E00E94DD01FF91EF91BF91AF919F9117
:100820008F917F916F915F914F913F912F910F9099
:100830000FBE0F901F9018951F920F920FB60F9238
:1008400011242F938F939F93EF93FF93E0917F0158
:10085000F09180018081E0918501F091860182FD17
:100860001BC09081809188018F5F8F7320918901D7
:10087000821741F0E0918801F0E0E159FE4F958F39
:1008800080938801FF91EF919F918F912F910F900D
:100890000FBE0F901F9018958081F4CFEFE6F1E026
:1008A0001382128288EE93E0A0E0B0E08483958307
:1008B000A683B7838AE091E09183808385EC90E002
:1008C0009587848784EC90E09787868780EC90E01A
:1008D000918B808B81EC90E0938B828B82EC90E00B
:1008E000958B848B86EC90E0978B868B118E128E85
:1008F000138E148EECE0F2E01182108213821282C9
:100900001582148250E040E06AE171E0CF010C945E
:100910003E03CF93DF93CDB7DEB7A7970FB6F8941A
:10092000DEBF0FBECDBF789484B5826084BD84B530
:10093000816084BD85B5826085BD85B5816085BDDA
:1009400080916E00816080936E0010928100809192
:10095000810082608093810080918100816080931A
:100960008100809180008160809380008091B1003F
:1009700084608093B1008091B00081608093B0006A
:1009800080917A00846080937A0080917A008260FE
:1009900080937A0080917A00816080937A008091C0
:1009A0007A00806880937A001092C100E0917F0104
:1009B000F091800182E08083E0917B01F0917C01E5
:1009C0001082E0917D01F0917E018FEC8083109286
:1009D0008701E0918301F091840186E08083E091BA
:1009E0008101F0918201808180618083E0918101A9
:1009F000F0918201808188608083E0918101F09193
:100A00008201808180688083E0918101F091820180
:100A100080818F7D80838BE191E00E94DE0280E007
:100A2000E82E80E0F82E80E691E00E94DE028BE165
:100A300091E00E94DE028FE691E00E94BD01892BC9
:100A4000D1F3CE0101960E94690389819A81812C9C
:100A5000912C5401009719F00E9439064B01909295
:100A6000650180926401CE0101960E940E03C401CB
:100A70000E94EC028BE291E00E946C028FE691E012
:100A80000E94BD01892BD1F3CE0101960E9469031A
:100A900089819A81812C912C5401009719F00E9430
:100AA00039064B019092630180926201CE0101965A
:100AB0000E940E03C4010E94EC02609162017091D9
:100AC0006301072E000C880B990B0E94AE084B01A6
:100AD0005C016091640170916501072E000C880B28
:100AE000990B0E94AE08A50194010E94DE091BA289
:100AF0001AA21DA21CA21FA21EA28E010F5F1F4FD1
:100B000022E044E00E941B06009709F46AC0FC0141
:100B100001900020E9F73197AF01481B590BBC0148
:100B2000CE0182960E943E0380910C0290910D02AC
:100B3000009709F465C06AA17BA16115710509F4EC
:100B40005DC040910E0250910F022EA13FA14217AD
:100B5000530708F453C00E94550E8EA19FA1909395
:100B60001102809310021FA21EA2CE0182960E9443
:100B70000E0380916401909165010E9404038DE34E
:100B800091E00E946C0280916201909163010E9449
:100B9000040385E591E00E946C024091100250919F
:100BA000110260910C0270910D028FE691E00E949B
:100BB0001F0188E191E00E946C0210926501109281
:100BC00064011092630110926201E114F10409F4CE
:100BD0002ACF0E94C901882309F425CF0E94000072
:100BE00022CF8AA19BA1009711F00E94060D1BA2A3
:100BF0001AA21FA21EA21DA21CA296CF0E94060D21
:100C00008AA19BA190930D0280930C028CA19DA1BF
:100C100090930F0280930E028EA19FA190931102D8
:100C2000809310021BA21AA21DA21CA29CCF8CE0D2
:100C300092E00C940E03EF920F931F93CF93DF93E8
:100C4000E80134E047FD34E1042E000C550B57FF5A
:100C500003C0519541955109E32E022F242FAE0177
:100C60000E947506CE01DF91CF911F910F91EF90F9
:100C700008951F93FC0199278827BC01E8941191DE
:100C80001032E9F3193010F01E30C8F31B3251F066
:100C90001D3249F4689406C00E946006610F711D00
:100CA000811D911D119110531A30B0F33EF49095AF
:100CB0008095709561957F4F8F4F9F4F1F9108953D
:100CC000592F482F372F262F660F771F881F991F00
:100CD000660F771F881F991F620F731F841F951F50
:100CE000660F771F881F991F0895A9E0B0E0EBE712
:100CF000F6E00C94AD096A01F22EB02E102FFBE342
:100D0000AF2EA01608F41BE31F5F012F27E0AE01F2
:100D10004F5F5F4F0E94D407BC018981982F997063
:100D2000913009F43FC09BE2E1FC04C09E2D91701C
:100D3000E0FC3AC05E2D5071E82FE87083FF46C09A
:100D400084E0911101C083E0EF2DE81B8F1508F0BE
:100D5000E0E0D6018E2F20E2552351F1992329F0AE
:100D6000D6019C93C60101966C0196012D5F3F4F01
:100D7000E2FE24C08EE4D6018C9391E411969C93FC
:100D8000119712968C93D9018E2F90E281111BC07E
:100D9000E20FF32FF11D10828EEF9FEF2996ECE00A
:100DA0000C94C9099DE2C6CF90E2C4CF2D93815027
:100DB0008111FCCFCE0ED11CE0E0D0CF8EE6D60163
:100DC0008C9391E6DBCF9D938150E0CF482F447008
:100DD00082FF3DC084E0911101C083E08F1510F4C3
:100DE000EF2DE81BD6018E2F20E2552309F1992320
:100DF00029F0D6019C93C60101966C0196012D5FE6
:100E00003F4FE2FE1BC089E4D6018C938EE411961D
:100E10008C93119786E412968C93D9018E2F90E2D1
:100E2000882309F4B5CF9D938150FACF2D9381503B
:100E30008111FCCFCE0ED11CE0E0D9CF89E6D601DE
:100E40008C938EE611968C93119786E6E4CF9B01E6
:100E500077FF02C030E020E0A1E0B0E0911102C0D5
:100E6000B0E0A0E0F9013196AE0FBF1F8B2C912CA2
:100E7000BB2009F461C05401EFEFAE1ABE0AAA0DFF
:100E8000BB1DFA161B0619F014F04F2D4A1B511109
:100E900088C0E3FC59C07601A42FB0E2A1114FC075
:100EA000C40ED11C992309F45BC040E0D601119611
:100EB000F60190836D01552309F448C0012F060FF8
:100EC0009A81582F507184FF03C0913309F4015067
:100ED00010160CF047C0093008F008E0EEE2FE2ED4
:100EE0005B01A01AB10885019194819491082F3F6C
:100EF000320729F4D601FC92F60131966F01621790
:100F0000730794F1021713077CF5DB01A21BB30BE7
:100F1000AA24A394B12CAC0EBD1EAA0DBB1D119624
:100F20008C9121503109D601119628153905F4F01C
:100F3000F60180836D01DBCFB12CA12CA0CFF7018E
:100F4000B1937F01A150AACF9111B0CFD601942FB8
:100F500050E302C05D9391509111FCCFC40ED11C9F
:100F600040E0ACCF01E0BACF80E3DBCF621773077C
:100F700031F4963388F4953311F4552369F0F60172
:100F80008083FD01842F90E2811108C0A40FB11D60
:100F90001C9290E080E002CF81E3F1CF91938150E9
:100FA000F3CF911183CF8ACF283008F027E0332781
:100FB000DA01990F311D87FD916000966105710579
:100FC00039F432602E5F3D9330E32A95E1F70895BE
:100FD0009F3F30F080387105610509F03C5F3C5F50
:100FE0003D93913008F08068911DDF93CF931F935C
:100FF0000F93FF92EF92192F987F9695E92F969570
:101000009695E90FFF27EC5BFE4F99273327EE24D7
:10101000FF24A701E70105900894079428F4360FF0
:10102000E71EF81E491F511D660F771F881F991F65
:101030000694A1F70590079428F4E70EF81E491FBF
:10104000561FC11D770F881F991F661F0694A1F7B1
:101050000590079428F4F80E491F561FC71FD11D8D
:10106000880F991F661F771F0694A1F705900794B4
:1010700020F4490F561FC71FD81F990F661F771FEF
:10108000881F0694A9F784911095177041F0D695A2
:10109000C79557954795F794E7941A95C1F7EAEEE7
:1010A000F0E06894159015913591659195910590B2
:1010B0007FE27395E118F10A430B560BC90BD00977
:1010C000C0F7E10CF11E431F561FC91FD01D7EF44F
:1010D000703311F48A95E6CFE894015030F0080F90
:1010E0000AF40027021708F4202F2395022F7A33E1
:1010F00028F079E37D932A95E9F710C07D932A952E
:1011000089F6069497956795379517951794E11882
:10111000F10A430B560BC90BD00998F023957E9129
:1011200073957A3308F070E37C932013B8F77E91BF
:1011300070617D9330F0839571E37D9370E32A9520
:10114000E1F71124EF90FF900F911F91CF91DF9164
:10115000992787FD90950895E89409C097FB3EF480
:1011600090958095709561957F4F8F4F9F4F9923F4
:10117000A9F0F92F96E9BB279395F6958795779572
:101180006795B795F111F8CFFAF4BB0F11F460FF32
:101190001BC06F5F7F4F8F4F9F4F16C0882311F08A
:1011A00096E911C0772321F09EE8872F762F05C09E
:1011B000662371F096E8862F70E060E02AF09A9539
:1011C000660F771F881FDAF7880F9695879597F92E
:1011D00008950E94FC080C946D090E945F0938F084
:1011E0000E94660920F0952311F00C9456090C9486
:1011F0005C0911240C94A1090E947E0970F3959F4B
:10120000C1F3950F50E0551F629FF001729FBB27FD
:10121000F00DB11D639FAA27F00DB11DAA1F649F99
:101220006627B00DA11D661F829F2227B00DA11D4C
:10123000621F739FB00DA11D621F839FA00D611DD2
:10124000221F749F3327A00D611D231F849F600DF3
:10125000211D822F762F6A2F11249F5750409AF01C
:10126000F1F088234AF0EE0FFF1FBB1F661F771FA8
:10127000881F91505040A9F79E3F510580F00C9473
:1012800056090C94A1095F3FE4F3983ED4F3869588
:1012900077956795B795F795E7959F5FC1F7FE2B13
:1012A000880F911D9695879597F9089597F99F67EF
:1012B00080E870E060E008959FEF80EC08950024DE
:1012C0000A941616170618060906089500240A94AB
:1012D00012161306140605060895092E0394000C31
:1012E00011F4882352F0BB0F40F4BF2B11F460FFC0
:1012F00004C06F5F7F4F8F4F9F4F089557FD9058E9
:10130000440F551F59F05F3F71F04795880F97FBC9
:10131000991F61F09F3F79F0879508951216130683
:101320001406551FF2CF4695F1DF08C016161706B2
:101330001806991FF1CF86957105610508940895E7
:10134000E894BB2766277727CB0197F908952F925A
:101350003F924F925F926F927F928F929F92AF9245
:10136000BF92CF92DF92EF92FF920F931F93CF9392
:10137000DF93CDB7DEB7CA1BDB0B0FB6F894DEBF29
:101380000FBECDBF09942A88398848885F846E844F
:101390007D848C849B84AA84B984C884DF80EE8099
:1013A000FD800C811B81AA81B981CE0FD11D0FB6A2
:1013B000F894DEBF0FBECDBFED010895FA01EE0F28
:1013C000FF1F309621053105A1F16115710561F40A
:1013D0008038BFE39B0749F168949038810561F03C
:1013E0008038BFEF9B0741F099234AF5FF3FE105A5
:1013F0003105210519F1E8940894E795D901AA234C
:1014000029F4AB2FBE2FF85FD0F310C0FF5F70F44C
:10141000A695E0F7F73950F019F0FF3A38F49F77C6
:101420009F930DD00F9007FC9058089546F00C94B0
:101430005C0960E070E080E89FE308954FE79F77E4
:101440005F934F933F932F930E94D90A2F913F911F
:101450004F915F910E94E9080C94360A29F416F026
:101460000C9456090C94A0090C945C090E948609FE
:10147000A8F39638A0F707F80F92E8942BE33AEA1E
:1014800048EB5FE70E94FF080F920F920F924DB753
:101490005EB70F920E94210BE8E6F0E00E94680A16
:1014A0004F915F91EF91FF91E595EE1FFF1F49F07E
:1014B000FE57E0684427EE0F441FFA95E1F7419587
:1014C000550B0E949B0A0F9007FE0C948F0A0895FB
:1014D000DF93CF931F930F93FF92EF92DF927B01E5
:1014E0008C01689406C0DA2EEF010E94FC08FE0110
:1014F000E894A5912591359145915591A6F3EF0179
:101500000E946D0BFE019701A801DA9469F7DF9044
:10151000EF90FF900F911F91CF91DF9108959B0164
:10152000AC0160E070E080E89FE30C94C20B0C9487
:1015300056090C94340C0E948609D8F39923C9F3F8
:10154000940F511DA3F39150504094F059F088230B
:1015500032F0660F771F881F91505040C1F79E3FB1
:1015600051052CF7880F911D9695879597F9089549
:101570005F3FACF0983E9CF0BB27869577956795CA
:10158000B79508F4B1609395C1F7BB0F58F711F404
:1015900060FFE8CF6F5F7F4F8F4F9F4FE3CF0C947B
:1015A000A10916F00C94340C0C945C0968940C940A
:1015B00056090E948609A8F39923C1F3AEF3DF937D
:1015C000CF931F930F93FF92C92FDD2788232AF013
:1015D0002197660F771F881FDAF720E030E040E898
:1015E0005FEB9FE3883920F0803E38F021968F77BB
:1015F0000E94560BE0E9F0E004C00E94560BEDEBB0
:10160000F0E00E94680A8B01BE01EC01FB2E6F57CF
:1016100071097595771F880B990B0E94AE0828E118
:1016200032E741E35FE30E94FC08AF2D9801AE0171
:10163000FF900F911F91CF91DF910E946D0B0C9441
:101640006D09FA01DC01AA0FBB1F9B01AC01BF575A
:1016500028F4222733274427507820C0B75190F42C
:10166000AB2F0024469537952795011CA395D2F3FF
:10167000002071F0220F331F441FB395DAF30ED010
:101680000C94550B61307105A0E88A07B94630F417
:101690009B01AC016627772788279078309621F048
:1016A000208331834283538308955058BB27AA2750
:1016B0000E946D0B0C946D090E945F0938F00E9426
:1016C000660920F039F49F3F19F426F40C945C0964
:1016D0000EF4E095E7FB0C945609E92F0E947E0971
:1016E00058F3BA17620773078407950720F079F457
:1016F000A6F50C94A0090EF4E0950B2EBA2FA02DA0
:101700000B01B90190010C01CA01A0011124FF27AE
:10171000591B99F0593F50F4503E68F11A16F040A9
:10172000A22F232F342F4427585FF3CF46953795A8
:101730002795A795F0405395C9F77EF41F16BA0B6D
:10174000620B730B840BBAF09150A1F0FF0FBB1F1B
:10175000661F771F881FC2F70EC0BA0F621F731F64
:10176000841F48F4879577956795B795F7959E3FC1
:1017700008F0B0CF9395880F08F09927EE0F979552
:10178000879508950E94D60B0C946D090E946609F6
:1017900058F00E945F0940F029F45F3F29F00C9453
:1017A000560951110C94A1090C945C090E947E0900
:1017B00068F39923B1F3552391F3951B550BBB2780
:1017C000AA2762177307840738F09F5F5F4F220FC5
:1017D000331F441FAA1FA9F335D00E2E3AF0E0E8BC
:1017E00032D091505040E695001CCAF72BD0FE2F06
:1017F00029D0660F771F881FBB1F2617370748079A
:10180000AB07B0E809F0BB0B802DBF01FF27935851
:101810005F4F3AF09E3F510578F00C9456090C94B6
:10182000A1095F3FE4F3983ED4F3869577956795D9
:10183000B795F7959F5FC9F7880F911D9695879586
:1018400097F90895E1E0660F771F881FBB1F6217A5
:1018500073078407BA0720F0621B730B840BBA0B63
:10186000EE1F88F7E09508959F3F31F0915020F4E6
:10187000879577956795B795880F911D969587956C
:1018800097F90895A1E21A2EAA1BBB1BFD010DC0FA
:10189000AA1FBB1FEE1FFF1FA217B307E407F50720
:1018A00020F0A21BB30BE40BF50B661F771F881FFC
:1018B000991F1A9469F760957095809590959B0192
:1018C000AC01BD01CF010895EE0FFF1F0590F4910B
:1018D000E02D09940F931F93CF93DF9382309105EE
:1018E00010F482E090E0E0911402F091150230E0F3
:1018F00020E0B0E0A0E0309799F42115310509F41B
:101900004AC0281B390B24303105D8F58A819B81C8
:101910006115710589F1FB0193838283FE0111C07A
:10192000408151810281138148175907E0F048171F
:10193000590799F4109761F012960C931297139629
:101940001C933296CF01DF91CF911F910F91089593
:101950000093140210931502F4CF2115310551F0B4
:101960004217530738F0A901DB019A01BD01DF01DD
:10197000F801C1CFEF01F9CF9093150280931402C3
:10198000CDCFFE01E20FF31F8193919322503109D5
:1019900039832883D7CF2091120230911302232B51
:1019A00041F42091020130910301309313022093FE
:1019B000120220910001309101012115310541F4FD
:1019C0002DB73EB74091040150910501241B350B02
:1019D000E0911202F0911302E217F307A0F42E1B1C
:1019E0003F0B2817390778F0AC014E5F5F4F241783
:1019F000350748F04E0F5F1F5093130240931202B9
:101A0000819391939FCFF0E0E0E09CCFCF93DF9361
:101A10000097E9F0FC01329713821282A091140220
:101A2000B0911502ED0130E020E01097A1F4208183
:101A30003181820F931F20911202309113022817D7
:101A4000390709F061C0F0931302E0931202DF91AD
:101A5000CF910895EA01CE17DF07E8F54A815B814F
:101A60009E0141155105B1F7E901FB83EA834991D4
:101A70005991C40FD51FEC17FD0761F48081918146
:101A80000296840F951FE90199838883828193814F
:101A90009B838A83F0E0E0E012968D919C911397EE
:101AA0000097B9F52D913C911197CD010296820FC7
:101AB000931F20911202309113022817390739F62B
:101AC000309751F51092150210921402B093130240
:101AD000A0931202BCCFD383C28340815181840F73
:101AE000951FC817D90761F44E5F5F4F88819981B0
:101AF000480F591F518340838A819B81938382833E
:101B00002115310509F0B0CFF0931502E0931402CE
:101B10009ECFFD01DC01C0CF13821282D7CFB0E08F
:101B2000A0E0E5E9FDE00C94A9098C01009751F4CF
:101B3000CB010E946A0C8C01C801CDB7DEB7E0E191
:101B40000C94C509FC01E60FF71F9C0122503109D6
:101B5000E217F30708F49DC0D901CD91DC911197EC
:101B6000C617D70798F0C530D10530F3CE010497DA
:101B70008617970708F3C61BD70B2297C193D193FB
:101B80006D937C93CF010E94060DD6CF5B01AC1AFA
:101B9000BD0A4C018C0E9D1EA0911402B09115023D
:101BA000512C412CF12CE12C109731F5809112022F
:101BB000909113028815990509F05CC046165706E6
:101BC00008F058C08091000190910101009741F404
:101BD0008DB79EB74091040150910501841B950B70
:101BE000E817F90708F055C0F0931302E0931202CA
:101BF000F90171836083A0CF8D919C91119712960A
:101C00006C90129713967C901397A815B90559F507
:101C10006C0142E0C40ED11CCA14DB0420F1AC01FB
:101C20004A195B09DA011296159780F06282738275
:101C300051834083D9016D937C93E114F10471F0D9
:101C4000D7011396FC93EE93129776CF22968C0FC2
:101C50009D1FF90191838083F301EFCFF09315026B
:101C6000E093140269CF4816590608F42C017D014F
:101C7000D3019ACFCB010E946A0C7C01009749F0F6
:101C8000AE01B8010E944C0EC8010E94060D8701EA
:101C900053CF10E000E050CFFB01DC0102C0019007
:101CA0000D9241505040D8F70895FB01DC0101909E
:101CB0000D920020E1F7089510E0C3EFD0E004C0DA
:101CC000FE010E94640C2196C43FD107C9F7F89425
:021CD000FFCF44
:101CD20000001602800000000000FF011F014C01FD
:101CE2004C02BD015B01AF010D0A00496E677265CE
:101CF2007365206E756D65726F3A00496E67726525
:101D0200736520706F74656E6369613A0020656C5B
:101D1200657661646F2061206C6120706F74656EFE
:101D2200636961200020657320696775616C2061B9
:021D320020008F
:00000001FF
