:100000000C9462000C948A000C948A000C948A0070
:100010000C948A000C948A000C948A000C948A0038
:100020000C948A000C948A000C948A000C948A0028
:100030000C948A000C948A000C948A000C948A0018
:100040000C94DA020C948A000C94A8020C9482029C
:100050000C948A000C948A000C948A000C948A00F8
:100060000C948A000C948A000000000023002600F3
:10007000290000000008000201000003040700003E
:1000800000000000000000000000250028002B00F8
:1000900000000000240027002A00040404040404D3
:1000A0000404020202020202030303030303010227
:1000B00004081020408001020408102001020408F6
:1000C00010204F0411241FBECFEFD8E0DEBFCDBFFC
:1000D00011E0A0E0B1E0E8E0F9E002C005900D9287
:1000E000A232B107D9F721E0A2E2B1E001C01D922E
:1000F000A43DB207E1F710E0C2E6D0E004C02197CA
:10010000FE010E947C04C136D107C9F70E94240376
:100110000C9482040C940000CF93DF9390E0FC01D8
:10012000E255FF4F249186569F4FFC01849188230E
:10013000C1F090E0880F991FFC01E057FF4FC59177
:10014000D491FC01EA57FF4FA591B4919FB7F89461
:100150003881822F809583238883EC91E22BEC9366
:100160009FBFDF91CF910895AF92BF92CF92DF9260
:10017000EF92FF920F931F93CF93DF936C017B015C
:100180008B01040F151FEB015E01AE18BF08C017ED
:10019000D10759F06991D601ED91FC910190F08160
:1001A000E02DC6010995892B79F7C501DF91CF9123
:1001B0001F910F91FF90EF90DF90CF90BF90AF9085
:1001C0000895FC01538D448D252F30E0842F90E05D
:1001D000821B930B541710F0CF9608950197089542
:1001E000FC01918D828D981761F0A28DAE0FBF2F0B
:1001F000B11D5D968C91928D9F5F9F73928F90E061
:1002000008958FEF9FEF0895FC01918D828D9817CF
:1002100031F0828DE80FF11D858D90E008958FEF0C
:100220009FEF0895FC01918D228D892F90E0805CD5
:100230009F4F821B91098F739927089587E391E05F
:100240000E94120121E0892B09F420E0822F0895F9
:1002500080E090E0892B29F00E941E0181110C940E
:1002600000000895FC01A48DA80FB92FB11DA35A59
:10027000BF4F2C91848D90E001968F739927848FC6
:10028000A689B7892C93A089B1898C9183708064E9
:100290008C93938D848D981306C00288F389E02D8A
:1002A00080818F7D80830895EF92FF920F931F933B
:1002B000CF93DF93EC0181E0888F9B8D8C8D981319
:1002C0001AC0E889F989808185FF15C09FB7F89425
:1002D000EE89FF896083E889F98980818370806471
:1002E00080839FBF81E090E0DF91CF911F910F91BC
:1002F000FF90EF900895F62E0B8D10E00F5F1F4FCB
:100300000F731127E02E8C8D8E110CC00FB607FCD9
:10031000FACFE889F989808185FFF5CFCE010E9467
:100320003201F1CFEB8DEC0FFD2FF11DE35AFF4FA2
:10033000F0829FB7F8940B8FEA89FB8980818062F5
:10034000CFCFCF93DF93EC01888D8823B9F0AA89B2
:10035000BB89E889F9898C9185FD03C0808186FD80
:100360000DC00FB607FCF7CF8C9185FFF2CF8081CF
:1003700085FFEDCFCE010E943201E9CFDF91CF9111
:10038000089590E0FC01EE58FF4F2491FC01E255E6
:10039000FF4F3491FC01E656FF4FE491EE23C1F18B
:1003A000222339F02330E9F090F4213001F122309A
:1003B00011F1F0E0EE0FFF1FE859FF4FA591B49146
:1003C000EC91E32381E090E029F580E00895273067
:1003D000A9F02830C9F0243061F7809180008F7D2A
:1003E00003C0809180008F7780938000E2CF84B536
:1003F0008F7784BDDECF84B58F7DFBCF8091B00039
:100400008F778093B000D5CF8091B0008F7DF9CFEA
:1004100080E090E008953FB7F89480912701909193
:100420002801A0912901B0912A0126B5A89B05C0F9
:100430002F3F19F00196A11DB11D3FBFBA2FA92F63
:10044000982F8827BC01CD01620F711D811D911D60
:1004500042E0660F771F881F991F4A95D1F70895CC
:100460008F929F92AF92BF92CF92DF92EF92FF92C4
:100470000E940B024B015C0184E6C82ED12CE12CBA
:10048000F12C0E940B02681979098A099B09683EC0
:10049000734081059105A8F321E0C21AD108E10853
:1004A000F10888EE880E83E0981EA11CB11CC114CF
:1004B000D104E104F10429F7FF90EF90DF90CF9091
:1004C000BF90AF909F908F900895CF93DF93FC01E2
:1004D00001900020E9F73197AF01481B590BBC018F
:1004E00087E391E00E94B400EC0142E050E062E159
:1004F00071E087E391E00E94B4008C0F9D1FDF91B3
:10050000CF9108951F920F920FB60F9211242F933F
:100510003F934F935F936F937F938F939F93AF938B
:10052000BF93EF93FF9387E391E00E943201FF9125
:10053000EF91BF91AF919F918F917F916F915F915B
:100540004F913F912F910F900FBE0F901F901895D4
:100550001F920F920FB60F9211242F938F939F9398
:10056000EF93FF93E0914701F09148018081E09182
:100570004D01F0914E0182FD1BC090818091500190
:100580008F5F8F7320915101821741F0E0915001EC
:10059000F0E0E95CFE4F958F80935001FF91EF9161
:1005A0009F918F912F910F900FBE0F901F901895D4
:1005B0008081F4CF1F920F920FB60F9211242F93C8
:1005C0003F938F939F93AF93BF938091230190911B
:1005D0002401A0912501B09126013091220123E050
:1005E000230F2D3758F50196A11DB11D209322012F
:1005F0008093230190932401A0932501B0932601B9
:100600008091270190912801A0912901B0912A01A0
:100610000196A11DB11D8093270190932801A093FD
:100620002901B0932A01BF91AF919F918F913F9182
:100630002F910F900FBE0F901F90189526E8230F53
:100640000296A11DB11DD2CF789484B5826084BD7D
:1006500084B5816084BD85B5826085BD85B58160C6
:1006600085BD80916E00816080936E001092810044
:1006700080918100826080938100809181008160FF
:1006800080938100809180008160809380008091C0
:10069000B10084608093B1008091B000816080934C
:1006A000B00080917A00846080937A0080917A0013
:1006B000826080937A0080917A00816080937A00D2
:1006C00080917A00806880937A001092C10088E05F
:1006D0000E948C0089E00E948C008AE00E948C00BD
:1006E0008BE00E948C008CE00E948C008DE00E94C8
:1006F0008C00E0914701F091480182E08083E09115
:100700004301F09144011082E0914501F0914601CE
:100710008FEC808310924F01E0914B01F0914C01DE
:1007200086E08083E0914901F0914A0180818061F7
:100730008083E0914901F0914A0180818860808343
:10074000E0914901F0914A01808180688083E091C5
:100750004901F0914A0180818F7D808300E010E0A3
:1007600088E00E94C101EC0181E090E0209711F047
:1007700090E080E0909336018093350189E00E94FB
:10078000C10121E030E0892B11F030E020E030930E
:100790003401209333018AE00E94C10121E030E05E
:1007A000892B11F030E020E03093320120933101A9
:1007B0008BE00E94C10121E030E0892B11F030E094
:1007C00020E03093300120932F018CE00E94C10182
:1007D00021E030E0892B11F030E020E030932E0151
:1007E00020932D018DE00E94C10121E030E0892B92
:1007F00011F030E020E030932C0120932B01CD2B21
:1008000031F485E191E00E9465020E9430028091FE
:10081000330190913401019731F487E191E00E9416
:1008200065020E943002809131019091320101975E
:1008300031F489E191E00E9465020E9430028091CA
:100840002F0190913001019731F48BE191E00E94EA
:1008500065020E94300280912D0190912E01019736
:1008600031F48DE191E00E9465020E943002809196
:100870002B0190912C01019731F48FE191E00E94BE
:1008800065020E9430020115110509F469CF0E942A
:100890001E01882309F464CF0E94000061CFE7E3C2
:1008A000F1E01382128288EE93E0A0E0B0E084834E
:1008B0009583A683B78384E091E09183808385EC60
:1008C00090E09587848784EC90E09787868780EC1A
:1008D00090E0918B808B81EC90E0938B828B82EC0B
:1008E00090E0958B848B86EC90E0978B868B118EB5
:1008F000128E138E148E0895EE0FFF1F0590F49143
:08090000E02D0994F894FFCFEB
:10090800000000005401B400E100A1011201F00050
:1009180004010D0A0077006100730064006C006B2D
:020928000000CD
:00000001FF
